{
  "contractName": "KIP17ReceiverMock",
  "abi": [
    {
      "inputs": [
        {
          "internalType": "bytes4",
          "name": "retval",
          "type": "bytes4"
        }
      ],
      "payable": false,
      "stateMutability": "nonpayable",
      "type": "constructor"
    },
    {
      "anonymous": false,
      "inputs": [
        {
          "indexed": false,
          "internalType": "address",
          "name": "operator",
          "type": "address"
        },
        {
          "indexed": false,
          "internalType": "address",
          "name": "from",
          "type": "address"
        },
        {
          "indexed": false,
          "internalType": "uint256",
          "name": "tokenId",
          "type": "uint256"
        },
        {
          "indexed": false,
          "internalType": "bytes",
          "name": "data",
          "type": "bytes"
        },
        {
          "indexed": false,
          "internalType": "uint256",
          "name": "gas",
          "type": "uint256"
        }
      ],
      "name": "Received",
      "type": "event"
    },
    {
      "constant": false,
      "inputs": [
        {
          "internalType": "address",
          "name": "operator",
          "type": "address"
        },
        {
          "internalType": "address",
          "name": "from",
          "type": "address"
        },
        {
          "internalType": "uint256",
          "name": "tokenId",
          "type": "uint256"
        },
        {
          "internalType": "bytes",
          "name": "data",
          "type": "bytes"
        }
      ],
      "name": "onKIP17Received",
      "outputs": [
        {
          "internalType": "bytes4",
          "name": "",
          "type": "bytes4"
        }
      ],
      "payable": false,
      "stateMutability": "nonpayable",
      "type": "function"
    }
  ],
  "bytecode": "0x608060405234801561001057600080fd5b5060405161035c38038061035c8339818101604052602081101561003357600080fd5b8101908080519060200190929190505050806000806101000a81548163ffffffff021916908360e01c0217905550506102eb806100716000396000f3fe608060405234801561001057600080fd5b506004361061002b5760003560e01c80636745782b14610030575b600080fd5b6101336004803603608081101561004657600080fd5b81019080803573ffffffffffffffffffffffffffffffffffffffff169060200190929190803573ffffffffffffffffffffffffffffffffffffffff16906020019092919080359060200190929190803590602001906401000000008111156100ad57600080fd5b8201836020820111156100bf57600080fd5b803590602001918460018302840111640100000000831117156100e157600080fd5b91908080601f016020809104026020016040519081016040528093929190818152602001838380828437600081840152601f19601f820116905080830192505050505050509192919290505050610187565b60405180827bffffffffffffffffffffffffffffffffffffffffffffffffffffffff19167bffffffffffffffffffffffffffffffffffffffffffffffffffffffff1916815260200191505060405180910390f35b60007f28fa6e16458f9c24aa59ddd4085264573006dbe30304837873c7deafc702b038858585855a604051808673ffffffffffffffffffffffffffffffffffffffff1673ffffffffffffffffffffffffffffffffffffffff1681526020018573ffffffffffffffffffffffffffffffffffffffff1673ffffffffffffffffffffffffffffffffffffffff16815260200184815260200180602001838152602001828103825284818151815260200191508051906020019080838360005b8381101561025f578082015181840152602081019050610244565b50505050905090810190601f16801561028c5780820380516001836020036101000a031916815260200191505b50965050505050505060405180910390a16000809054906101000a900460e01b905094935050505056fea265627a7a7231582034fdfb60f53244799933a2deb84490ff9c74a9c64b6050579906ab6ef240a77964736f6c63430005100032",
  "source": "pragma solidity ^0.5.0;\n\nimport \"../token/KIP17/IKIP17Receiver.sol\";\n\ncontract KIP17ReceiverMock is IKIP17Receiver {\n    bytes4 private _retval;\n\n    event Received(address operator, address from, uint256 tokenId, bytes data, uint256 gas);\n\n    constructor (bytes4 retval) public {\n        _retval = retval;\n    }\n\n    function onKIP17Received(address operator, address from, uint256 tokenId, bytes memory data)\n        public returns (bytes4)\n    {\n        emit Received(operator, from, tokenId, data, gasleft());\n        return _retval;\n    }\n}\n",
  "sourcePath": "C:\\Users\\kjw\\Desktop\\newproject_branch\\addition-game-starter-master\\contracts\\klaytn-contracts\\mocks\\KIP17ReceiverMock.sol",
  "compiler": {
    "name": "solc",
    "version": "0.5.16+commit.9c3226ce.Emscripten.clang"
  },
  "schemaVersion": "3.1.0",
  "updatedAt": "2021-11-29T07:24:18.360Z",
  "devdoc": {
    "methods": {}
  },
  "userdoc": {
    "methods": {}
  }
}